{
  "_format": "hh-sol-artifact-1",
  "contractName": "SwapRouter02",
  "sourceName": "contracts/SwapRouter02.sol",
  "abi": [
    {
      "inputs": [
        {
          "internalType": "address",
          "name": "_factoryV2",
          "type": "address"
        },
        {
          "internalType": "address",
          "name": "factoryV3",
          "type": "address"
        },
        {
          "internalType": "address",
          "name": "_positionManager",
          "type": "address"
        },
        {
          "internalType": "address",
          "name": "_WETH9",
          "type": "address"
        }
      ],
      "stateMutability": "nonpayable",
      "type": "constructor"
    },
    {
      "inputs": [],
      "name": "WETH9",
      "outputs": [
        {
          "internalType": "address",
          "name": "",
          "type": "address"
        }
      ],
      "stateMutability": "view",
      "type": "function"
    },
    {
      "inputs": [
        {
          "internalType": "address",
          "name": "token",
          "type": "address"
        }
      ],
      "name": "approveMax",
      "outputs": [],
      "stateMutability": "payable",
      "type": "function"
    },
    {
      "inputs": [
        {
          "internalType": "address",
          "name": "token",
          "type": "address"
        }
      ],
      "name": "approveMaxMinusOne",
      "outputs": [],
      "stateMutability": "payable",
      "type": "function"
    },
    {
      "inputs": [
        {
          "internalType": "address",
          "name": "token",
          "type": "address"
        }
      ],
      "name": "approveZeroThenMax",
      "outputs": [],
      "stateMutability": "payable",
      "type": "function"
    },
    {
      "inputs": [
        {
          "internalType": "address",
          "name": "token",
          "type": "address"
        }
      ],
      "name": "approveZeroThenMaxMinusOne",
      "outputs": [],
      "stateMutability": "payable",
      "type": "function"
    },
    {
      "inputs": [
        {
          "internalType": "bytes",
          "name": "data",
          "type": "bytes"
        }
      ],
      "name": "callPositionManager",
      "outputs": [
        {
          "internalType": "bytes",
          "name": "result",
          "type": "bytes"
        }
      ],
      "stateMutability": "payable",
      "type": "function"
    },
    {
      "inputs": [
        {
          "internalType": "bytes[]",
          "name": "paths",
          "type": "bytes[]"
        },
        {
          "internalType": "uint128[]",
          "name": "amounts",
          "type": "uint128[]"
        },
        {
          "internalType": "uint24",
          "name": "maximumTickDivergence",
          "type": "uint24"
        },
        {
          "internalType": "uint32",
          "name": "secondsAgo",
          "type": "uint32"
        }
      ],
      "name": "checkOracleSlippage",
      "outputs": [],
      "stateMutability": "view",
      "type": "function"
    },
    {
      "inputs": [
        {
          "internalType": "bytes",
          "name": "path",
          "type": "bytes"
        },
        {
          "internalType": "uint24",
          "name": "maximumTickDivergence",
          "type": "uint24"
        },
        {
          "internalType": "uint32",
          "name": "secondsAgo",
          "type": "uint32"
        }
      ],
      "name": "checkOracleSlippage",
      "outputs": [],
      "stateMutability": "view",
      "type": "function"
    },
    {
      "inputs": [
        {
          "components": [
            {
              "internalType": "bytes",
              "name": "path",
              "type": "bytes"
            },
            {
              "internalType": "address",
              "name": "recipient",
              "type": "address"
            },
            {
              "internalType": "uint256",
              "name": "amountIn",
              "type": "uint256"
            },
            {
              "internalType": "uint256",
              "name": "amountOutMinimum",
              "type": "uint256"
            }
          ],
          "internalType": "struct IV3SwapRouter.ExactInputParams",
          "name": "params",
          "type": "tuple"
        }
      ],
      "name": "exactInput",
      "outputs": [
        {
          "internalType": "uint256",
          "name": "amountOut",
          "type": "uint256"
        }
      ],
      "stateMutability": "payable",
      "type": "function"
    },
    {
      "inputs": [
        {
          "components": [
            {
              "internalType": "address",
              "name": "tokenIn",
              "type": "address"
            },
            {
              "internalType": "address",
              "name": "tokenOut",
              "type": "address"
            },
            {
              "internalType": "uint24",
              "name": "fee",
              "type": "uint24"
            },
            {
              "internalType": "address",
              "name": "recipient",
              "type": "address"
            },
            {
              "internalType": "uint256",
              "name": "amountIn",
              "type": "uint256"
            },
            {
              "internalType": "uint256",
              "name": "amountOutMinimum",
              "type": "uint256"
            },
            {
              "internalType": "uint160",
              "name": "sqrtPriceLimitX96",
              "type": "uint160"
            }
          ],
          "internalType": "struct IV3SwapRouter.ExactInputSingleParams",
          "name": "params",
          "type": "tuple"
        }
      ],
      "name": "exactInputSingle",
      "outputs": [
        {
          "internalType": "uint256",
          "name": "amountOut",
          "type": "uint256"
        }
      ],
      "stateMutability": "payable",
      "type": "function"
    },
    {
      "inputs": [
        {
          "components": [
            {
              "internalType": "bytes",
              "name": "path",
              "type": "bytes"
            },
            {
              "internalType": "address",
              "name": "recipient",
              "type": "address"
            },
            {
              "internalType": "uint256",
              "name": "amountOut",
              "type": "uint256"
            },
            {
              "internalType": "uint256",
              "name": "amountInMaximum",
              "type": "uint256"
            }
          ],
          "internalType": "struct IV3SwapRouter.ExactOutputParams",
          "name": "params",
          "type": "tuple"
        }
      ],
      "name": "exactOutput",
      "outputs": [
        {
          "internalType": "uint256",
          "name": "amountIn",
          "type": "uint256"
        }
      ],
      "stateMutability": "payable",
      "type": "function"
    },
    {
      "inputs": [
        {
          "components": [
            {
              "internalType": "address",
              "name": "tokenIn",
              "type": "address"
            },
            {
              "internalType": "address",
              "name": "tokenOut",
              "type": "address"
            },
            {
              "internalType": "uint24",
              "name": "fee",
              "type": "uint24"
            },
            {
              "internalType": "address",
              "name": "recipient",
              "type": "address"
            },
            {
              "internalType": "uint256",
              "name": "amountOut",
              "type": "uint256"
            },
            {
              "internalType": "uint256",
              "name": "amountInMaximum",
              "type": "uint256"
            },
            {
              "internalType": "uint160",
              "name": "sqrtPriceLimitX96",
              "type": "uint160"
            }
          ],
          "internalType": "struct IV3SwapRouter.ExactOutputSingleParams",
          "name": "params",
          "type": "tuple"
        }
      ],
      "name": "exactOutputSingle",
      "outputs": [
        {
          "internalType": "uint256",
          "name": "amountIn",
          "type": "uint256"
        }
      ],
      "stateMutability": "payable",
      "type": "function"
    },
    {
      "inputs": [],
      "name": "factory",
      "outputs": [
        {
          "internalType": "address",
          "name": "",
          "type": "address"
        }
      ],
      "stateMutability": "view",
      "type": "function"
    },
    {
      "inputs": [],
      "name": "factoryV2",
      "outputs": [
        {
          "internalType": "address",
          "name": "",
          "type": "address"
        }
      ],
      "stateMutability": "view",
      "type": "function"
    },
    {
      "inputs": [
        {
          "internalType": "address",
          "name": "token",
          "type": "address"
        },
        {
          "internalType": "uint256",
          "name": "amount",
          "type": "uint256"
        }
      ],
      "name": "getApprovalType",
      "outputs": [
        {
          "internalType": "enum IApproveAndCall.ApprovalType",
          "name": "",
          "type": "uint8"
        }
      ],
      "stateMutability": "nonpayable",
      "type": "function"
    },
    {
      "inputs": [
        {
          "components": [
            {
              "internalType": "address",
              "name": "token0",
              "type": "address"
            },
            {
              "internalType": "address",
              "name": "token1",
              "type": "address"
            },
            {
              "internalType": "uint256",
              "name": "tokenId",
              "type": "uint256"
            },
            {
              "internalType": "uint256",
              "name": "amount0Min",
              "type": "uint256"
            },
            {
              "internalType": "uint256",
              "name": "amount1Min",
              "type": "uint256"
            }
          ],
          "internalType": "struct IApproveAndCall.IncreaseLiquidityParams",
          "name": "params",
          "type": "tuple"
        }
      ],
      "name": "increaseLiquidity",
      "outputs": [
        {
          "internalType": "bytes",
          "name": "result",
          "type": "bytes"
        }
      ],
      "stateMutability": "payable",
      "type": "function"
    },
    {
      "inputs": [
        {
          "components": [
            {
              "internalType": "address",
              "name": "token0",
              "type": "address"
            },
            {
              "internalType": "address",
              "name": "token1",
              "type": "address"
            },
            {
              "internalType": "uint24",
              "name": "fee",
              "type": "uint24"
            },
            {
              "internalType": "int24",
              "name": "tickLower",
              "type": "int24"
            },
            {
              "internalType": "int24",
              "name": "tickUpper",
              "type": "int24"
            },
            {
              "internalType": "uint256",
              "name": "amount0Min",
              "type": "uint256"
            },
            {
              "internalType": "uint256",
              "name": "amount1Min",
              "type": "uint256"
            },
            {
              "internalType": "address",
              "name": "recipient",
              "type": "address"
            }
          ],
          "internalType": "struct IApproveAndCall.MintParams",
          "name": "params",
          "type": "tuple"
        }
      ],
      "name": "mint",
      "outputs": [
        {
          "internalType": "bytes",
          "name": "result",
          "type": "bytes"
        }
      ],
      "stateMutability": "payable",
      "type": "function"
    },
    {
      "inputs": [
        {
          "internalType": "bytes32",
          "name": "previousBlockhash",
          "type": "bytes32"
        },
        {
          "internalType": "bytes[]",
          "name": "data",
          "type": "bytes[]"
        }
      ],
      "name": "multicall",
      "outputs": [
        {
          "internalType": "bytes[]",
          "name": "",
          "type": "bytes[]"
        }
      ],
      "stateMutability": "payable",
      "type": "function"
    },
    {
      "inputs": [
        {
          "internalType": "uint256",
          "name": "deadline",
          "type": "uint256"
        },
        {
          "internalType": "bytes[]",
          "name": "data",
          "type": "bytes[]"
        }
      ],
      "name": "multicall",
      "outputs": [
        {
          "internalType": "bytes[]",
          "name": "",
          "type": "bytes[]"
        }
      ],
      "stateMutability": "payable",
      "type": "function"
    },
    {
      "inputs": [
        {
          "internalType": "bytes[]",
          "name": "data",
          "type": "bytes[]"
        }
      ],
      "name": "multicall",
      "outputs": [
        {
          "internalType": "bytes[]",
          "name": "results",
          "type": "bytes[]"
        }
      ],
      "stateMutability": "payable",
      "type": "function"
    },
    {
      "inputs": [],
      "name": "poolDeployer",
      "outputs": [
        {
          "internalType": "address",
          "name": "",
          "type": "address"
        }
      ],
      "stateMutability": "view",
      "type": "function"
    },
    {
      "inputs": [],
      "name": "positionManager",
      "outputs": [
        {
          "internalType": "address",
          "name": "",
          "type": "address"
        }
      ],
      "stateMutability": "view",
      "type": "function"
    },
    {
      "inputs": [
        {
          "internalType": "address",
          "name": "token",
          "type": "address"
        },
        {
          "internalType": "uint256",
          "name": "value",
          "type": "uint256"
        }
      ],
      "name": "pull",
      "outputs": [],
      "stateMutability": "payable",
      "type": "function"
    },
    {
      "inputs": [],
      "name": "refundETH",
      "outputs": [],
      "stateMutability": "payable",
      "type": "function"
    },
    {
      "inputs": [
        {
          "internalType": "address",
          "name": "token",
          "type": "address"
        },
        {
          "internalType": "uint256",
          "name": "value",
          "type": "uint256"
        },
        {
          "internalType": "uint256",
          "name": "deadline",
          "type": "uint256"
        },
        {
          "internalType": "uint8",
          "name": "v",
          "type": "uint8"
        },
        {
          "internalType": "bytes32",
          "name": "r",
          "type": "bytes32"
        },
        {
          "internalType": "bytes32",
          "name": "s",
          "type": "bytes32"
        }
      ],
      "name": "selfPermit",
      "outputs": [],
      "stateMutability": "payable",
      "type": "function"
    },
    {
      "inputs": [
        {
          "internalType": "address",
          "name": "token",
          "type": "address"
        },
        {
          "internalType": "uint256",
          "name": "nonce",
          "type": "uint256"
        },
        {
          "internalType": "uint256",
          "name": "expiry",
          "type": "uint256"
        },
        {
          "internalType": "uint8",
          "name": "v",
          "type": "uint8"
        },
        {
          "internalType": "bytes32",
          "name": "r",
          "type": "bytes32"
        },
        {
          "internalType": "bytes32",
          "name": "s",
          "type": "bytes32"
        }
      ],
      "name": "selfPermitAllowed",
      "outputs": [],
      "stateMutability": "payable",
      "type": "function"
    },
    {
      "inputs": [
        {
          "internalType": "address",
          "name": "token",
          "type": "address"
        },
        {
          "internalType": "uint256",
          "name": "nonce",
          "type": "uint256"
        },
        {
          "internalType": "uint256",
          "name": "expiry",
          "type": "uint256"
        },
        {
          "internalType": "uint8",
          "name": "v",
          "type": "uint8"
        },
        {
          "internalType": "bytes32",
          "name": "r",
          "type": "bytes32"
        },
        {
          "internalType": "bytes32",
          "name": "s",
          "type": "bytes32"
        }
      ],
      "name": "selfPermitAllowedIfNecessary",
      "outputs": [],
      "stateMutability": "payable",
      "type": "function"
    },
    {
      "inputs": [
        {
          "internalType": "address",
          "name": "token",
          "type": "address"
        },
        {
          "internalType": "uint256",
          "name": "value",
          "type": "uint256"
        },
        {
          "internalType": "uint256",
          "name": "deadline",
          "type": "uint256"
        },
        {
          "internalType": "uint8",
          "name": "v",
          "type": "uint8"
        },
        {
          "internalType": "bytes32",
          "name": "r",
          "type": "bytes32"
        },
        {
          "internalType": "bytes32",
          "name": "s",
          "type": "bytes32"
        }
      ],
      "name": "selfPermitIfNecessary",
      "outputs": [],
      "stateMutability": "payable",
      "type": "function"
    },
    {
      "inputs": [
        {
          "internalType": "int256",
          "name": "amount0Delta",
          "type": "int256"
        },
        {
          "internalType": "int256",
          "name": "amount1Delta",
          "type": "int256"
        },
        {
          "internalType": "bytes",
          "name": "_data",
          "type": "bytes"
        }
      ],
      "name": "skyxV3SwapCallback",
      "outputs": [],
      "stateMutability": "nonpayable",
      "type": "function"
    },
    {
      "inputs": [
        {
          "internalType": "uint256",
          "name": "amountIn",
          "type": "uint256"
        },
        {
          "internalType": "uint256",
          "name": "amountOutMin",
          "type": "uint256"
        },
        {
          "internalType": "address[]",
          "name": "path",
          "type": "address[]"
        },
        {
          "internalType": "address",
          "name": "to",
          "type": "address"
        }
      ],
      "name": "swapExactTokensForTokens",
      "outputs": [
        {
          "internalType": "uint256",
          "name": "amountOut",
          "type": "uint256"
        }
      ],
      "stateMutability": "payable",
      "type": "function"
    },
    {
      "inputs": [
        {
          "internalType": "uint256",
          "name": "amountOut",
          "type": "uint256"
        },
        {
          "internalType": "uint256",
          "name": "amountInMax",
          "type": "uint256"
        },
        {
          "internalType": "address[]",
          "name": "path",
          "type": "address[]"
        },
        {
          "internalType": "address",
          "name": "to",
          "type": "address"
        }
      ],
      "name": "swapTokensForExactTokens",
      "outputs": [
        {
          "internalType": "uint256",
          "name": "amountIn",
          "type": "uint256"
        }
      ],
      "stateMutability": "payable",
      "type": "function"
    },
    {
      "inputs": [
        {
          "internalType": "address",
          "name": "token",
          "type": "address"
        },
        {
          "internalType": "uint256",
          "name": "amountMinimum",
          "type": "uint256"
        },
        {
          "internalType": "address",
          "name": "recipient",
          "type": "address"
        }
      ],
      "name": "sweepToken",
      "outputs": [],
      "stateMutability": "payable",
      "type": "function"
    },
    {
      "inputs": [
        {
          "internalType": "address",
          "name": "token",
          "type": "address"
        },
        {
          "internalType": "uint256",
          "name": "amountMinimum",
          "type": "uint256"
        }
      ],
      "name": "sweepToken",
      "outputs": [],
      "stateMutability": "payable",
      "type": "function"
    },
    {
      "inputs": [
        {
          "internalType": "address",
          "name": "token",
          "type": "address"
        },
        {
          "internalType": "uint256",
          "name": "amountMinimum",
          "type": "uint256"
        },
        {
          "internalType": "uint256",
          "name": "feeBips",
          "type": "uint256"
        },
        {
          "internalType": "address",
          "name": "feeRecipient",
          "type": "address"
        }
      ],
      "name": "sweepTokenWithFee",
      "outputs": [],
      "stateMutability": "payable",
      "type": "function"
    },
    {
      "inputs": [
        {
          "internalType": "address",
          "name": "token",
          "type": "address"
        },
        {
          "internalType": "uint256",
          "name": "amountMinimum",
          "type": "uint256"
        },
        {
          "internalType": "address",
          "name": "recipient",
          "type": "address"
        },
        {
          "internalType": "uint256",
          "name": "feeBips",
          "type": "uint256"
        },
        {
          "internalType": "address",
          "name": "feeRecipient",
          "type": "address"
        }
      ],
      "name": "sweepTokenWithFee",
      "outputs": [],
      "stateMutability": "payable",
      "type": "function"
    },
    {
      "inputs": [
        {
          "internalType": "uint256",
          "name": "amountMinimum",
          "type": "uint256"
        },
        {
          "internalType": "address",
          "name": "recipient",
          "type": "address"
        }
      ],
      "name": "unwrapWETH9",
      "outputs": [],
      "stateMutability": "payable",
      "type": "function"
    },
    {
      "inputs": [
        {
          "internalType": "uint256",
          "name": "amountMinimum",
          "type": "uint256"
        }
      ],
      "name": "unwrapWETH9",
      "outputs": [],
      "stateMutability": "payable",
      "type": "function"
    },
    {
      "inputs": [
        {
          "internalType": "uint256",
          "name": "amountMinimum",
          "type": "uint256"
        },
        {
          "internalType": "address",
          "name": "recipient",
          "type": "address"
        },
        {
          "internalType": "uint256",
          "name": "feeBips",
          "type": "uint256"
        },
        {
          "internalType": "address",
          "name": "feeRecipient",
          "type": "address"
        }
      ],
      "name": "unwrapWETH9WithFee",
      "outputs": [],
      "stateMutability": "payable",
      "type": "function"
    },
    {
      "inputs": [
        {
          "internalType": "uint256",
          "name": "amountMinimum",
          "type": "uint256"
        },
        {
          "internalType": "uint256",
          "name": "feeBips",
          "type": "uint256"
        },
        {
          "internalType": "address",
          "name": "feeRecipient",
          "type": "address"
        }
      ],
      "name": "unwrapWETH9WithFee",
      "outputs": [],
      "stateMutability": "payable",
      "type": "function"
    },
    {
      "inputs": [
        {
          "internalType": "uint256",
          "name": "value",
          "type": "uint256"
        }
      ],
      "name": "wrapETH",
      "outputs": [],
      "stateMutability": "payable",
      "type": "function"
    },
    {
      "stateMutability": "payable",
      "type": "receive"
    }
  ],
  "bytecode": "0x6101206040526000196000553480156200001857600080fd5b50604051620050d5380380620050d58339810160408190526200003b9162000113565b6001600160601b0319606085811b821660805283811b821660a05284811b821660c05282901b1660e0526040805163188c824d60e11b81529051849183916001600160a01b03841691633119049a916004808301926020929190829003018186803b158015620000aa57600080fd5b505afa158015620000bf573d6000803e3d6000fd5b505050506040513d6020811015620000d657600080fd5b505160601b6001600160601b03191661010052506200016f945050505050565b80516001600160a01b03811681146200010e57600080fd5b919050565b6000806000806080858703121562000129578384fd5b6200013485620000f6565b93506200014460208601620000f6565b92506200015460408601620000f6565b91506200016460608601620000f6565b905092959194509250565b60805160601c60a05160601c60c05160601c60e05160601c6101005160601c614eb86200021d60003980610a3a52806114c2528061314b52508061024f52806109545280610f975280611082528061111c52806112d152806113bc528061252e528061257452806125e8525080611a2b525080611291528061178c5280611a6e5280612968525080610a635280610b0a5280610d69528061126d5280612713528061287a5250614eb86000f3fe60806040526004361061023f5760003560e01c80639b2c0a371161012e578063d4ef38de116100ab578063efdeed8e1161006f578063efdeed8e146105b0578063f100b205146105d0578063f25801a7146105e3578063f2d5d56b14610603578063f3995c6714610616576102af565b8063d4ef38de14610537578063dee00f351461054a578063df2ab5bb14610577578063e0e189a01461058a578063e90a182f1461059d576102af565b8063b3a2af13116100f2578063b3a2af13146104d6578063b858183f146104e9578063c2e3140a146104fc578063c45a01551461050f578063cab372ce14610524576102af565b80639b2c0a371461046a5780639f398d991461047d578063a4a78f0c1461049d578063ab3fdd50146104b0578063ac9650d8146104c3576102af565b8063472b43f3116101bc578063571ac8b011610180578063571ac8b0146104075780635ae401dc1461041a578063639d71a91461042d57806368e0d4e114610440578063791b98bc14610455576102af565b8063472b43f3146103a657806349404b7c146103b957806349616997146103cc5780634aa4a4fc146103df5780635023b4df146103f4576102af565b80631f0464d1116102035780631f0464d11461032b5780633068c5541461034b5780633119049a1461035e57806342712a67146103805780634659a49414610393576102af565b806304e45aaf146102b457806309b81346146102dd57806311ed56c9146102f057806312210e8a146103105780631c58db4f14610318576102af565b366102af57336001600160a01b037f000000000000000000000000000000000000000000000000000000000000000016146102ad576040805162461bcd60e51b81526020600482015260096024820152684e6f7420574554483960b81b604482015290519081900360640190fd5b005b600080fd5b6102c76102c23660046145f4565b610629565b6040516102d49190614d36565b60405180910390f35b6102c76102eb36600461468e565b610748565b6103036102fe3660046146e7565b6107dd565b6040516102d49190614b7b565b6102ad610940565b6102ad610326366004614869565b610952565b61033e61033936600461435e565b6109c9565b6040516102d49190614b1b565b6102ad610359366004614191565b610a25565b34801561036a57600080fd5b50610373610a38565b6040516102d49190614a8e565b6102c761038e366004614933565b610a5c565b6102ad6103a13660046141da565b610bef565b6102c76103b4366004614933565b610c89565b6102ad6103c7366004614899565b610f93565b6102ad6103da366004614869565b61110d565b3480156103eb57600080fd5b5061037361111a565b6102c76104023660046146c5565b61113e565b6102ad6104153660046140a4565b6111ed565b61033e61042836600461435e565b611202565b6102ad61043b3660046140a4565b611257565b34801561044c57600080fd5b5061037361126b565b34801561046157600080fd5b5061037361128f565b6102ad6104783660046148c8565b6112b3565b34801561048957600080fd5b506102ad61049836600461446c565b61147d565b6102ad6104ab3660046141da565b61158d565b6102ad6104be3660046140a4565b61161e565b61033e6104d1366004614235565b61163e565b6103036104e43660046143a7565b611786565b6102c76104f736600461454f565b611837565b6102ad61050a3660046141da565b61199a565b34801561051b57600080fd5b50610373611a29565b6102ad6105323660046140a4565b611632565b6102ad610545366004614906565b611a4d565b34801561055657600080fd5b5061056a6105653660046140c7565b611a59565b6040516102d49190614b8e565b6102ad6105853660046140f2565b611b81565b6102ad610598366004614133565b611c59565b6102ad6105ab3660046140c7565b611d80565b3480156105bc57600080fd5b506102ad6105cb366004614274565b611d8f565b6103036105de3660046146d6565b611dc7565b3480156105ef57600080fd5b506102ad6105fe3660046143d9565b611e49565b6102ad6106113660046140c7565b611e80565b6102ad6106243660046141da565b611e8c565b6000806000836080015114156106c0575081516040516370a0823160e01b81526001916001600160a01b0316906370a082319061066a903090600401614a8e565b60206040518083038186803b15801561068257600080fd5b505afa158015610696573d6000803e3d6000fd5b505050506040513d601f19601f820116820180604052508101906106ba9190614881565b60808401525b61072f836080015184606001518560c001516040518060400160405280886000015189604001518a602001516040516020016106fe93929190614a2c565b60405160208183030381529060405281526020018661071d573361071f565b305b6001600160a01b03169052611efe565b91508260a0015182101561074257600080fd5b50919050565b60006107bc6040830180359061076190602086016140a4565b60408051808201909152600090806107798880614d6c565b8080601f0160208091040260200160405190810160405280939291908181526020018383808284376000920191909152505050908252503360209091015261206e565b505060005460608201358111156107d257600080fd5b600019600055919050565b60408051610160810190915260609061093890634418b22b60e11b908061080760208701876140a4565b6001600160a01b0316815260200185602001602081019061082891906140a4565b6001600160a01b03168152602001610846606087016040880161484f565b62ffffff168152602001610860608087016060880161442d565b60020b815260200161087860a087016080880161442d565b60020b815260209081019061089890610893908801886140a4565b612207565b81526020016108b386602001602081019061089391906140a4565b815260a0860135602082015260c086013560408201526060016108dd610100870160e088016140a4565b6001600160a01b031681526020016000198152506040516024016109019190614c3c565b60408051601f198184030181529190526020810180516001600160e01b03166001600160e01b031990931692909217909152611786565b90505b919050565b4715610950576109503347612286565b565b7f00000000000000000000000000000000000000000000000000000000000000006001600160a01b031663d0e30db0826040518263ffffffff1660e01b81526004016000604051808303818588803b1580156109ad57600080fd5b505af11580156109c1573d6000803e3d6000fd5b505050505050565b60608380600143034014610a10576040805162461bcd60e51b8152602060048201526009602482015268084d8dec6d6d0c2e6d60bb1b604482015290519081900360640190fd5b610a1a848461163e565b91505b509392505050565b610a328484338585611c59565b50505050565b7f000000000000000000000000000000000000000000000000000000000000000081565b6000610abc7f00000000000000000000000000000000000000000000000000000000000000008786868080602002602001604051908101604052809392919081815260200183836020028082843760009201919091525061237592505050565b600081518110610ac857fe5b6020026020010151905084811115610adf57600080fd5b610b7884846000818110610aef57fe5b9050602002016020810190610b0491906140a4565b33610b727f000000000000000000000000000000000000000000000000000000000000000088886000818110610b3657fe5b9050602002016020810190610b4b91906140a4565b89896001818110610b5857fe5b9050602002016020810190610b6d91906140a4565b612471565b8461252c565b6001600160a01b03821660011415610b9257339150610ba8565b6001600160a01b03821660021415610ba8573091505b610be68484808060200260200160405190810160405280939291908181526020018383602002808284376000920191909152508692506126bc915050565b95945050505050565b604080516323f2ebc360e21b815233600482015230602482015260448101879052606481018690526001608482015260ff851660a482015260c4810184905260e4810183905290516001600160a01b03881691638fcbaf0c9161010480830192600092919082900301818387803b158015610c6957600080fd5b505af1158015610c7d573d6000803e3d6000fd5b50505050505050505050565b60008086610d32575060018484600081610c9f57fe5b9050602002016020810190610cb491906140a4565b6001600160a01b03166370a08231306040518263ffffffff1660e01b8152600401610cdf9190614a8e565b60206040518083038186803b158015610cf757600080fd5b505afa158015610d0b573d6000803e3d6000fd5b505050506040513d601f19601f82011682018060405250810190610d2f9190614881565b96505b610dbd85856000818110610d4257fe5b9050602002016020810190610d5791906140a4565b82610d625733610d64565b305b610db77f000000000000000000000000000000000000000000000000000000000000000089896000818110610d9557fe5b9050602002016020810190610daa91906140a4565b8a8a6001818110610b5857fe5b8a61252c565b6001600160a01b03831660011415610dd757339250610ded565b6001600160a01b03831660021415610ded573092505b600085856000198101818110610dff57fe5b9050602002016020810190610e1491906140a4565b6001600160a01b03166370a08231856040518263ffffffff1660e01b8152600401610e3f9190614a8e565b60206040518083038186803b158015610e5757600080fd5b505afa158015610e6b573d6000803e3d6000fd5b505050506040513d601f19601f82011682018060405250810190610e8f9190614881565b9050610ecf8686808060200260200160405190810160405280939291908181526020018383602002808284376000920191909152508892506126bc915050565b610f798187876000198101818110610ee357fe5b9050602002016020810190610ef891906140a4565b6001600160a01b03166370a08231876040518263ffffffff1660e01b8152600401610f239190614a8e565b60206040518083038186803b158015610f3b57600080fd5b505afa158015610f4f573d6000803e3d6000fd5b505050506040513d601f19601f82011682018060405250810190610f739190614881565b9061293f565b925086831015610f8857600080fd5b505095945050505050565b60007f00000000000000000000000000000000000000000000000000000000000000006001600160a01b03166370a08231306040518263ffffffff1660e01b815260040180826001600160a01b0316815260200191505060206040518083038186803b15801561100257600080fd5b505afa158015611016573d6000803e3d6000fd5b505050506040513d602081101561102c57600080fd5b505190508281101561107a576040805162461bcd60e51b8152602060048201526012602482015271496e73756666696369656e7420574554483960701b604482015290519081900360640190fd5b8015611108577f00000000000000000000000000000000000000000000000000000000000000006001600160a01b0316632e1a7d4d826040518263ffffffff1660e01b815260040180828152602001915050600060405180830381600087803b1580156110e657600080fd5b505af11580156110fa573d6000803e3d6000fd5b505050506111088282612286565b505050565b6111178133610f93565b50565b7f000000000000000000000000000000000000000000000000000000000000000081565b60006111da6080830180359061115790606086016140a4565b61116760e0860160c087016140a4565b604051806040016040528087602001602081019061118591906140a4565b61119560608a0160408b0161484f565b6111a260208b018b6140a4565b6040516020016111b493929190614a2c565b6040516020818303038152906040528152602001336001600160a01b031681525061206e565b90508160a001358111156107d257600080fd5b6111f98160001961294f565b61111757600080fd5b6060838061120e612a43565b1115610a10576040805162461bcd60e51b8152602060048201526013602482015272151c985b9cd858dd1a5bdb881d1bdbc81bdb19606a1b604482015290519081900360640190fd5b61126281600061294f565b6111ed57600080fd5b7f000000000000000000000000000000000000000000000000000000000000000081565b7f000000000000000000000000000000000000000000000000000000000000000081565b6000821180156112c4575060648211155b6112cd57600080fd5b60007f00000000000000000000000000000000000000000000000000000000000000006001600160a01b03166370a08231306040518263ffffffff1660e01b815260040180826001600160a01b0316815260200191505060206040518083038186803b15801561133c57600080fd5b505afa158015611350573d6000803e3d6000fd5b505050506040513d602081101561136657600080fd5b50519050848110156113b4576040805162461bcd60e51b8152602060048201526012602482015271496e73756666696369656e7420574554483960701b604482015290519081900360640190fd5b8015611476577f00000000000000000000000000000000000000000000000000000000000000006001600160a01b0316632e1a7d4d826040518263ffffffff1660e01b815260040180828152602001915050600060405180830381600087803b15801561142057600080fd5b505af1158015611434573d6000803e3d6000fd5b5050505060006127106114508584612a4790919063ffffffff16565b8161145757fe5b049050801561146a5761146a8382612286565b6109c185828403612286565b5050505050565b600084138061148c5750600083135b61149557600080fd5b60006114a3828401846146f9565b905060008060006114b78460000151612a6b565b9250925092506114e97f0000000000000000000000000000000000000000000000000000000000000000848484612a9c565b5060008060008a1361151057846001600160a01b0316846001600160a01b03161089611527565b836001600160a01b0316856001600160a01b0316108a5b91509150811561154657611541858760200151338461252c565b610c7d565b855161155190612ab2565b1561157657855161156190612aba565b8652611570813360008961206e565b50610c7d565b80600081905550610c7d848760200151338461252c565b60408051636eb1769f60e11b81523360048201523060248201529051600019916001600160a01b0389169163dd62ed3e91604480820192602092909190829003018186803b1580156115de57600080fd5b505afa1580156115f2573d6000803e3d6000fd5b505050506040513d602081101561160857600080fd5b505110156109c1576109c1868686868686610bef565b61162981600061294f565b61163257600080fd5b6111f98160011961294f565b6060816001600160401b038111801561165657600080fd5b5060405190808252806020026020018201604052801561168a57816020015b60608152602001906001900390816116755790505b50905060005b8281101561177f57600080308686858181106116a857fe5b90506020028101906116ba9190614d6c565b6040516116c8929190614a62565b600060405180830381855af49150503d8060008114611703576040519150601f19603f3d011682016040523d82523d6000602084013e611708565b606091505b50915091508161175d5760448151101561172157600080fd5b6004810190508080602001905181019061173b91906144e6565b60405162461bcd60e51b81526004016117549190614b7b565b60405180910390fd5b8084848151811061176a57fe5b60209081029190910101525050600101611690565b5092915050565b606060007f00000000000000000000000000000000000000000000000000000000000000006001600160a01b0316836040516117c29190614a72565b6000604051808303816000865af19150503d80600081146117ff576040519150601f19603f3d011682016040523d82523d6000602084013e611804565b606091505b5092509050806107425760448251101561181d57600080fd5b6004820191508180602001905181019061173b91906144e6565b6000806000836040015114156118e25760019050600061185a8460000151612a6b565b50506040516370a0823160e01b81529091506001600160a01b038216906370a082319061188b903090600401614a8e565b60206040518083038186803b1580156118a357600080fd5b505afa1580156118b7573d6000803e3d6000fd5b505050506040513d601f19601f820116820180604052508101906118db9190614881565b6040850152505b6000816118ef57336118f1565b305b90505b60006119038560000151612ab2565b905061194f85604001518261191c57866020015161191e565b305b600060405180604001604052806119388b60000151612ad1565b8152602001876001600160a01b0316815250611efe565b6040860152801561196f57845130925061196890612aba565b855261197c565b8460400151935050611982565b506118f4565b836060015183101561199357600080fd5b5050919050565b60408051636eb1769f60e11b8152336004820152306024820152905186916001600160a01b0389169163dd62ed3e91604480820192602092909190829003018186803b1580156119e957600080fd5b505afa1580156119fd573d6000803e3d6000fd5b505050506040513d6020811015611a1357600080fd5b505110156109c1576109c1868686868686611e8c565b7f000000000000000000000000000000000000000000000000000000000000000081565b611108833384846112b3565b600081836001600160a01b031663dd62ed3e307f00000000000000000000000000000000000000000000000000000000000000006040518363ffffffff1660e01b8152600401611aaa929190614aa2565b60206040518083038186803b158015611ac257600080fd5b505afa158015611ad6573d6000803e3d6000fd5b505050506040513d601f19601f82011682018060405250810190611afa9190614881565b10611b0757506000611b7b565b611b138360001961294f565b15611b2057506001611b7b565b611b2c8360011961294f565b15611b3957506002611b7b565b611b4483600061294f565b611b4d57600080fd5b611b598360001961294f565b15611b6657506003611b7b565b611b728360011961294f565b156102af575060045b92915050565b6000836001600160a01b03166370a08231306040518263ffffffff1660e01b815260040180826001600160a01b0316815260200191505060206040518083038186803b158015611bd057600080fd5b505afa158015611be4573d6000803e3d6000fd5b505050506040513d6020811015611bfa57600080fd5b5051905082811015611c48576040805162461bcd60e51b815260206004820152601260248201527124b739bab33334b1b4b2b73a103a37b5b2b760711b604482015290519081900360640190fd5b8015610a3257610a32848383612ae0565b600082118015611c6a575060648211155b611c7357600080fd5b6000856001600160a01b03166370a08231306040518263ffffffff1660e01b815260040180826001600160a01b0316815260200191505060206040518083038186803b158015611cc257600080fd5b505afa158015611cd6573d6000803e3d6000fd5b505050506040513d6020811015611cec57600080fd5b5051905084811015611d3a576040805162461bcd60e51b815260206004820152601260248201527124b739bab33334b1b4b2b73a103a37b5b2b760711b604482015290519081900360640190fd5b80156109c1576000612710611d4f8386612a47565b81611d5657fe5b0490508015611d6a57611d6a878483612ae0565b611d778786838503612ae0565b50505050505050565b611d8b828233611b81565b5050565b600080611d9d868685612c27565b915091508362ffffff16818303126109c15760405162461bcd60e51b815260040161175490614bdc565b606061093863219f5d1760e01b6040518060c0016040528085604001358152602001611dff86600001602081019061089391906140a4565b8152602001611e1a86602001602081019061089391906140a4565b815260200185606001358152602001856080013581526020016000198152506040516024016109019190614bf8565b600080611e568584612e1d565b915091508362ffffff16818303126114765760405162461bcd60e51b815260040161175490614bdc565b611d8b82333084612ff4565b6040805163d505accf60e01b8152336004820152306024820152604481018790526064810186905260ff8516608482015260a4810184905260c4810183905290516001600160a01b0388169163d505accf9160e480830192600092919082900301818387803b158015610c6957600080fd5b60006001600160a01b03841660011415611f1a57339350611f30565b6001600160a01b03841660021415611f30573093505b6000806000611f428560000151612a6b565b919450925090506001600160a01b0380831690841610600080611f66868686613144565b6001600160a01b031663128acb088b85611f7f8f613182565b6001600160a01b038e1615611f94578d611fba565b87611fb35773fffd8963efd1fc6a506488495d951d5263988d25611fba565b6401000276a45b8d604051602001611fcb9190614cea565b6040516020818303038152906040526040518663ffffffff1660e01b8152600401611ffa959493929190614abc565b6040805180830381600087803b15801561201357600080fd5b505af1158015612027573d6000803e3d6000fd5b505050506040513d601f19601f8201168201806040525081019061204b9190614449565b915091508261205a578161205c565b805b6000039b9a5050505050505050505050565b60006001600160a01b0384166001141561208a573393506120a0565b6001600160a01b038416600214156120a0573093505b60008060006120b28560000151612a6b565b919450925090506001600160a01b03808416908316106000806120d6858786613144565b6001600160a01b031663128acb088b856120ef8f613182565b6000036001600160a01b038e1615612107578d61212d565b876121265773fffd8963efd1fc6a506488495d951d5263988d2561212d565b6401000276a45b8d60405160200161213e9190614cea565b6040516020818303038152906040526040518663ffffffff1660e01b815260040161216d959493929190614abc565b6040805180830381600087803b15801561218657600080fd5b505af115801561219a573d6000803e3d6000fd5b505050506040513d601f19601f820116820180604052508101906121be9190614449565b915091506000836121d35781836000036121d9565b82826000035b90985090506001600160a01b038a166121f8578b81146121f857600080fd5b50505050505050949350505050565b6040516370a0823160e01b81526000906001600160a01b038316906370a0823190612236903090600401614a8e565b60206040518083038186803b15801561224e57600080fd5b505afa158015612262573d6000803e3d6000fd5b505050506040513d601f19601f820116820180604052508101906109389190614881565b604080516000808252602082019092526001600160a01b0384169083906040518082805190602001908083835b602083106122d25780518252601f1990920191602091820191016122b3565b6001836020036101000a03801982511681845116808217855250505050505090500191505060006040518083038185875af1925050503d8060008114612334576040519150601f19603f3d011682016040523d82523d6000602084013e612339565b606091505b5050905080611108576040805162461bcd60e51b815260206004820152600360248201526222aa2360e91b604482015290519081900360640190fd5b606060028251101561238657600080fd5b81516001600160401b038111801561239d57600080fd5b506040519080825280602002602001820160405280156123c7578160200160208202803683370190505b50905082816001835103815181106123db57fe5b60209081029190910101528151600019015b8015610a1d5760008061242a8786600186038151811061240957fe5b602002602001015187868151811061241d57fe5b6020026020010151613198565b9150915061244c84848151811061243d57fe5b6020026020010151838361325f565b84600185038151811061245b57fe5b60209081029190910101525050600019016123ed565b6000806000612480858561331b565b604080516001600160601b0319606094851b811660208084019190915293851b81166034830152825160288184030181526048830184528051908501206001600160f81b031960688401529a90941b9093166069840152607d8301989098527fa795368f72739ee47c6b417165c10b6eae74f9c99804f7c42ef183686dda3f4b609d808401919091528851808403909101815260bd909201909752805196019590952095945050505050565b7f00000000000000000000000000000000000000000000000000000000000000006001600160a01b0316846001600160a01b031614801561256d5750804710155b1561268f577f00000000000000000000000000000000000000000000000000000000000000006001600160a01b031663d0e30db0826040518263ffffffff1660e01b81526004016000604051808303818588803b1580156125cd57600080fd5b505af11580156125e1573d6000803e3d6000fd5b50505050507f00000000000000000000000000000000000000000000000000000000000000006001600160a01b031663a9059cbb83836040518363ffffffff1660e01b815260040180836001600160a01b0316815260200182815260200192505050602060405180830381600087803b15801561265d57600080fd5b505af1158015612671573d6000803e3d6000fd5b505050506040513d602081101561268757600080fd5b50610a329050565b6001600160a01b0383163014156126b0576126ab848383612ae0565b610a32565b610a3284848484612ff4565b60005b6001835103811015611108576000808483815181106126da57fe5b60200260200101518584600101815181106126f157fe5b6020026020010151915091506000612709838361331b565b50905060006127397f00000000000000000000000000000000000000000000000000000000000000008585612471565b9050600080600080846001600160a01b0316630902f1ac6040518163ffffffff1660e01b815260040160606040518083038186803b15801561277a57600080fd5b505afa15801561278e573d6000803e3d6000fd5b505050506040513d601f19601f820116820180604052508101906127b29190614788565b506001600160701b031691506001600160701b03169150600080876001600160a01b03168a6001600160a01b0316146127ec5782846127ef565b83835b91509150612823828b6001600160a01b03166370a082318a6040518263ffffffff1660e01b8152600401610f239190614a8e565b955061283086838361337f565b945050505050600080856001600160a01b0316886001600160a01b03161461285a5782600061285e565b6000835b91509150600060028c51038a10612875578a6128b6565b6128b67f0000000000000000000000000000000000000000000000000000000000000000898e8d600201815181106128a957fe5b6020026020010151612471565b6040805160008152602081019182905263022c0d9f60e01b9091529091506001600160a01b0387169063022c0d9f906128f89086908690869060248101614d3f565b600060405180830381600087803b15801561291257600080fd5b505af1158015612926573d6000803e3d6000fd5b50506001909b019a506126bf9950505050505050505050565b80820382811115611b7b57600080fd5b6000806000846001600160a01b031663095ea7b360e01b7f000000000000000000000000000000000000000000000000000000000000000086604051602401612999929190614b02565b60408051601f198184030181529181526020820180516001600160e01b03166001600160e01b03199094169390931790925290516129d79190614a72565b6000604051808303816000865af19150503d8060008114612a14576040519150601f19603f3d011682016040523d82523d6000602084013e612a19565b606091505b5091509150818015610be6575080511580610be6575080806020019051810190610be69190614344565b4290565b6000821580612a6257505081810281838281612a5f57fe5b04145b611b7b57600080fd5b60008080612a79848261343b565b9250612a868460146134eb565b9050612a9384601761343b565b91509193909250565b6000610be685612aad868686613592565b6135e8565b516042111590565b80516060906109389083906017906016190161363c565b6060610938826000602b61363c565b604080516001600160a01b038481166024830152604480830185905283518084039091018152606490920183526020820180516001600160e01b031663a9059cbb60e01b1781529251825160009485949389169392918291908083835b60208310612b5c5780518252601f199092019160209182019101612b3d565b6001836020036101000a0380198251168184511680821785525050505050509050019150506000604051808303816000865af19150503d8060008114612bbe576040519150601f19603f3d011682016040523d82523d6000602084013e612bc3565b606091505b5091509150818015612bf1575080511580612bf15750808060200190516020811015612bee57600080fd5b50515b611476576040805162461bcd60e51b81526020600482015260026024820152612a2360f11b604482015290519081900360640190fd5b6000808351855114612c3857600080fd5b600085516001600160401b0381118015612c5157600080fd5b50604051908082528060200260200182016040528015612c8b57816020015b612c78613efe565b815260200190600190039081612c705790505b509050600086516001600160401b0381118015612ca757600080fd5b50604051908082528060200260200182016040528015612ce157816020015b612cce613efe565b815260200190600190039081612cc65790505b50905060005b8751811015612df657600080612d108a8481518110612d0257fe5b602002602001015189612e1d565b91509150612d1d8261378d565b858481518110612d2957fe5b60200260200101516000019060020b908160020b81525050612d4a8161378d565b848481518110612d5657fe5b60200260200101516000019060020b908160020b81525050888381518110612d7a57fe5b6020026020010151858481518110612d8e57fe5b6020026020010151602001906001600160801b031690816001600160801b031681525050888381518110612dbe57fe5b6020026020010151848481518110612dd257fe5b6020908102919091018101516001600160801b039092169101525050600101612ce7565b50612e008261379e565b60020b9350612e0e8161379e565b60020b92505050935093915050565b600080600080612e2c86613856565b90506000805b82811015612fd5576000806000612e488b612a6b565b9250925092506000612e5b848484613144565b905060008063ffffffff8d16612e8457612e7483613863565b600291820b9350900b9050612f19565b612e8e838e613aa0565b8160020b91505080925050826001600160a01b0316633850c7bd6040518163ffffffff1660e01b815260040160e06040518083038186803b158015612ed257600080fd5b505afa158015612ee6573d6000803e3d6000fd5b505050506040513d601f19601f82011682018060405250810190612f0a91906147c3565b50505060029290920b93505050505b60018903871415612f4057846001600160a01b0316866001600160a01b0316109950612f4f565b612f498e612aba565b9d508597505b6000871580612fa25750866001600160a01b0316896001600160a01b031610612f8c57866001600160a01b0316866001600160a01b031610612fa2565b856001600160a01b0316876001600160a01b0316105b90508015612fb7579b82019b9a81019a612fc2565b828d039c50818c039b505b505060019095019450612e329350505050565b5082612fea5760001985029450600019840293505b5050509250929050565b604080516001600160a01b0385811660248301528481166044830152606480830185905283518084039091018152608490920183526020820180516001600160e01b03166323b872dd60e01b178152925182516000948594938a169392918291908083835b602083106130785780518252601f199092019160209182019101613059565b6001836020036101000a0380198251168184511680821785525050505050509050019150506000604051808303816000865af19150503d80600081146130da576040519150601f19603f3d011682016040523d82523d6000602084013e6130df565b606091505b509150915081801561310d57508051158061310d575080806020019051602081101561310a57600080fd5b50515b6109c1576040805162461bcd60e51b81526020600482015260036024820152622a232360e91b604482015290519081900360640190fd5b600061317a7f0000000000000000000000000000000000000000000000000000000000000000613175868686613592565b613e0f565b949350505050565b6000600160ff1b821061319457600080fd5b5090565b60008060006131a7858561331b565b5090506000806131b8888888612471565b6001600160a01b0316630902f1ac6040518163ffffffff1660e01b815260040160606040518083038186803b1580156131f057600080fd5b505afa158015613204573d6000803e3d6000fd5b505050506040513d606081101561321a57600080fd5b5080516020909101516001600160701b0391821693501690506001600160a01b038781169084161461324d578082613250565b81815b90999098509650505050505050565b60008084116132b5576040805162461bcd60e51b815260206004820152601a60248201527f494e53554646494349454e545f4f55545055545f414d4f554e54000000000000604482015290519081900360640190fd5b6000831180156132c55750600082115b6132ce57600080fd5b60006132e66103e86132e08688612a47565b90612a47565b905060006132fa6103e56132e0868961293f565b9050613311600182848161330a57fe5b0490613eee565b9695505050505050565b600080826001600160a01b0316846001600160a01b0316141561333d57600080fd5b826001600160a01b0316846001600160a01b03161061335d578284613360565b83835b90925090506001600160a01b03821661337857600080fd5b9250929050565b60008084116133d5576040805162461bcd60e51b815260206004820152601960248201527f494e53554646494349454e545f494e5055545f414d4f554e5400000000000000604482015290519081900360640190fd5b6000831180156133e55750600082115b6133ee57600080fd5b60006133fc856103e5612a47565b9050600061340a8285612a47565b905060006134248361341e886103e8612a47565b90613eee565b905080828161342f57fe5b04979650505050505050565b60008182601401101561348a576040805162461bcd60e51b8152602060048201526012602482015271746f416464726573735f6f766572666c6f7760701b604482015290519081900360640190fd5b81601401835110156134db576040805162461bcd60e51b8152602060048201526015602482015274746f416464726573735f6f75744f66426f756e647360581b604482015290519081900360640190fd5b500160200151600160601b900490565b600081826003011015613539576040805162461bcd60e51b8152602060048201526011602482015270746f55696e7432345f6f766572666c6f7760781b604482015290519081900360640190fd5b8160030183511015613589576040805162461bcd60e51b8152602060048201526014602482015273746f55696e7432345f6f75744f66426f756e647360601b604482015290519081900360640190fd5b50016003015190565b61359a613f15565b826001600160a01b0316846001600160a01b031611156135b8579192915b50604080516060810182526001600160a01b03948516815292909316602083015262ffffff169181019190915290565b60006135f48383613e0f565b9050336001600160a01b03821614611b7b576040805162461bcd60e51b815260206004808301919091526024820152631413d3d360e21b604482015290519081900360640190fd5b60608182601f011015613687576040805162461bcd60e51b815260206004820152600e60248201526d736c6963655f6f766572666c6f7760901b604482015290519081900360640190fd5b8282840110156136cf576040805162461bcd60e51b815260206004820152600e60248201526d736c6963655f6f766572666c6f7760901b604482015290519081900360640190fd5b8183018451101561371b576040805162461bcd60e51b8152602060048201526011602482015270736c6963655f6f75744f66426f756e647360781b604482015290519081900360640190fd5b60608215801561373a5760405191506000825260208201604052613784565b6040519150601f8416801560200281840101858101878315602002848b0101015b8183101561377357805183526020928301920161375b565b5050858452601f01601f1916604052505b50949350505050565b80600281900b811461093b57600080fd5b6000806000805b8451811015613821578481815181106137ba57fe5b6020026020010151602001516001600160801b03168582815181106137db57fe5b60200260200101516000015160020b02830192508481815181106137fb57fe5b6020026020010151602001516001600160801b03168201915080806001019150506137a5565b5080828161382b57fe5b059250600082128015613846575080828161384257fe5b0715155b1561199357505060001901919050565b5160176013199091010490565b600080600080846001600160a01b0316633850c7bd6040518163ffffffff1660e01b815260040160e06040518083038186803b1580156138a257600080fd5b505afa1580156138b6573d6000803e3d6000fd5b505050506040513d601f19601f820116820180604052508101906138da91906147c3565b50939750919550935050600161ffff841611915061390c90505760405162461bcd60e51b815260040161175490614bbf565b600080866001600160a01b031663252c09d7856040518263ffffffff1660e01b815260040161393b9190614d27565b60806040518083038186803b15801561395357600080fd5b505afa158015613967573d6000803e3d6000fd5b505050506040513d601f19601f8201168201806040525081019061398b919061498d565b505091509150613999612a43565b63ffffffff168263ffffffff16146139b357849550613a97565b60008361ffff1660018561ffff168761ffff160103816139cf57fe5b06905060008060008a6001600160a01b031663252c09d7856040518263ffffffff1660e01b8152600401613a039190614d36565b60806040518083038186803b158015613a1b57600080fd5b505afa158015613a2f573d6000803e3d6000fd5b505050506040513d601f19601f82011682018060405250810190613a53919061498d565b9350509250925080613a775760405162461bcd60e51b815260040161175490614ba2565b82860363ffffffff811683870360060b81613a8e57fe5b059a5050505050505b50505050915091565b60008063ffffffff8316613ae0576040805162461bcd60e51b8152602060048201526002602482015261042560f41b604482015290519081900360640190fd5b6040805160028082526060820183526000926020830190803683370190505090508381600081518110613b0f57fe5b602002602001019063ffffffff16908163ffffffff1681525050600081600181518110613b3857fe5b63ffffffff90921660209283029190910182015260405163883bdbfd60e01b81526004810182815283516024830152835160009384936001600160a01b038b169363883bdbfd9388939192839260449091019185820191028083838b5b83811015613bad578181015183820152602001613b95565b505050509050019250505060006040518083038186803b158015613bd057600080fd5b505afa158015613be4573d6000803e3d6000fd5b505050506040513d6000823e601f3d908101601f191682016040908152811015613c0d57600080fd5b8101908080516040519392919084640100000000821115613c2d57600080fd5b908301906020820185811115613c4257600080fd5b8251866020820283011164010000000082111715613c5f57600080fd5b82525081516020918201928201910280838360005b83811015613c8c578181015183820152602001613c74565b5050505090500160405260200180516040519392919084640100000000821115613cb557600080fd5b908301906020820185811115613cca57600080fd5b8251866020820283011164010000000082111715613ce757600080fd5b82525081516020918201928201910280838360005b83811015613d14578181015183820152602001613cfc565b5050505090500160405250505091509150600082600081518110613d3457fe5b602002602001015183600181518110613d4957fe5b6020026020010151039050600082600081518110613d6357fe5b602002602001015183600181518110613d7857fe5b60200260200101510390508763ffffffff168260060b81613d9557fe5b05965060008260060b128015613dbf57508763ffffffff168260060b81613db857fe5b0760060b15155b15613dcc57600019909601955b63ffffffff88166001600160a01b0302640100000000600160c01b03602083901b166001600160c01b03821681613dff57fe5b0496505050505050509250929050565b600081602001516001600160a01b031682600001516001600160a01b031610613e3757600080fd5b50805160208083015160409384015184516001600160a01b0394851681850152939091168385015262ffffff166060808401919091528351808403820181526080840185528051908301206001600160f81b031960a085015294901b6001600160601b03191660a183015260b58201939093527f1b5c366cb0b7109926c0b161c0a85469fa485e75389d33a4dd753c35b22f157b60d5808301919091528251808303909101815260f5909101909152805191012090565b80820182811015611b7b57600080fd5b604080518082019091526000808252602082015290565b604080516060810182526000808252602082018190529181019190915290565b803561093b81614e3d565b60008083601f840112613f51578182fd5b5081356001600160401b03811115613f67578182fd5b602083019150836020808302850101111561337857600080fd5b600082601f830112613f91578081fd5b81356020613fa6613fa183614dd3565b614db0565b8281528181019085830183850287018401881015613fc2578586fd5b855b85811015613ff45781356001600160801b0381168114613fe2578788fd5b84529284019290840190600101613fc4565b5090979650505050505050565b8051801515811461093b57600080fd5b600082601f830112614021578081fd5b813561402f613fa182614df0565b818152846020838601011115614043578283fd5b816020850160208301379081016020019190915292915050565b80516001600160701b038116811461093b57600080fd5b805161ffff8116811461093b57600080fd5b803562ffffff8116811461093b57600080fd5b803561093b81614e61565b6000602082840312156140b5578081fd5b81356140c081614e3d565b9392505050565b600080604083850312156140d9578081fd5b82356140e481614e3d565b946020939093013593505050565b600080600060608486031215614106578081fd5b833561411181614e3d565b925060208401359150604084013561412881614e3d565b809150509250925092565b600080600080600060a0868803121561414a578283fd5b853561415581614e3d565b945060208601359350604086013561416c81614e3d565b925060608601359150608086013561418381614e3d565b809150509295509295909350565b600080600080608085870312156141a6578182fd5b84356141b181614e3d565b9350602085013592506040850135915060608501356141cf81614e3d565b939692955090935050565b60008060008060008060c087890312156141f2578384fd5b86356141fd81614e3d565b95506020870135945060408701359350606087013561421b81614e73565b9598949750929560808101359460a0909101359350915050565b60008060208385031215614247578182fd5b82356001600160401b0381111561425c578283fd5b61426885828601613f40565b90969095509350505050565b60008060008060808587031215614289578182fd5b84356001600160401b038082111561429f578384fd5b818701915087601f8301126142b2578384fd5b813560206142c2613fa183614dd3565b82815281810190858301885b858110156142f7576142e58e8684358b0101614011565b845292840192908401906001016142ce565b5090995050508801359250508082111561430f578384fd5b5061431c87828801613f81565b93505061432b60408601614086565b915061433960608601614099565b905092959194509250565b600060208284031215614355578081fd5b6140c082614001565b600080600060408486031215614372578081fd5b8335925060208401356001600160401b0381111561438e578182fd5b61439a86828701613f40565b9497909650939450505050565b6000602082840312156143b8578081fd5b81356001600160401b038111156143cd578182fd5b61317a84828501614011565b6000806000606084860312156143ed578081fd5b83356001600160401b03811115614402578182fd5b61440e86828701614011565b93505061441d60208501614086565b9150604084013561412881614e61565b60006020828403121561443e578081fd5b81356140c081614e52565b6000806040838503121561445b578182fd5b505080516020909101519092909150565b60008060008060608587031215614481578182fd5b843593506020850135925060408501356001600160401b03808211156144a5578384fd5b818701915087601f8301126144b8578384fd5b8135818111156144c6578485fd5b8860208285010111156144d7578485fd5b95989497505060200194505050565b6000602082840312156144f7578081fd5b81516001600160401b0381111561450c578182fd5b8201601f8101841361451c578182fd5b805161452a613fa182614df0565b81815285602083850101111561453e578384fd5b610be6826020830160208601614e11565b600060208284031215614560578081fd5b81356001600160401b0380821115614576578283fd5b9083019060808286031215614589578283fd5b60405160808101818110838211171561459e57fe5b6040528235828111156145af578485fd5b6145bb87828601614011565b825250602083013591506145ce82614e3d565b816020820152604083013560408201526060830135606082015280935050505092915050565b600060e08284031215614605578081fd5b60405160e081018181106001600160401b038211171561462157fe5b60405261462d83613f35565b815261463b60208401613f35565b602082015261464c60408401614086565b604082015261465d60608401613f35565b60608201526080830135608082015260a083013560a082015261468260c08401613f35565b60c08201529392505050565b60006020828403121561469f578081fd5b81356001600160401b038111156146b4578182fd5b8201608081850312156140c0578182fd5b600060e08284031215610742578081fd5b600060a08284031215610742578081fd5b60006101008284031215610742578081fd5b60006020828403121561470a578081fd5b81356001600160401b0380821115614720578283fd5b9083019060408286031215614733578283fd5b60405160408101818110838211171561474857fe5b604052823582811115614759578485fd5b61476587828601614011565b8252506020830135925061477883614e3d565b6020810192909252509392505050565b60008060006060848603121561479c578081fd5b6147a58461405d565b92506147b36020850161405d565b9150604084015161412881614e61565b600080600080600080600060e0888a0312156147dd578485fd5b87516147e881614e3d565b60208901519097506147f981614e52565b955061480760408901614074565b945061481560608901614074565b935061482360808901614074565b925060a088015161483381614e73565b915061484160c08901614001565b905092959891949750929550565b600060208284031215614860578081fd5b6140c082614086565b60006020828403121561487a578081fd5b5035919050565b600060208284031215614892578081fd5b5051919050565b600080604083850312156148ab578182fd5b8235915060208301356148bd81614e3d565b809150509250929050565b600080600080608085870312156148dd578182fd5b8435935060208501356148ef81614e3d565b92506040850135915060608501356141cf81614e3d565b60008060006060848603121561491a578081fd5b8335925060208401359150604084013561412881614e3d565b60008060008060006080868803121561494a578283fd5b853594506020860135935060408601356001600160401b0381111561496d578384fd5b61497988828901613f40565b909450925050606086013561418381614e3d565b600080600080608085870312156149a2578182fd5b84516149ad81614e61565b8094505060208501518060060b81146149c4578283fd5b60408601519093506149d581614e3d565b915061433960608601614001565b6001600160a01b03169052565b60008151808452614a08816020860160208601614e11565b601f01601f19169290920160200192915050565b60020b9052565b62ffffff169052565b606093841b6001600160601b0319908116825260e89390931b6001600160e81b0319166014820152921b166017820152602b0190565b6000828483379101908152919050565b60008251614a84818460208701614e11565b9190910192915050565b6001600160a01b0391909116815260200190565b6001600160a01b0392831681529116602082015260400190565b6001600160a01b0386811682528515156020830152604082018590528316606082015260a060808201819052600090614af7908301846149f0565b979650505050505050565b6001600160a01b03929092168252602082015260400190565b6000602080830181845280855180835260408601915060408482028701019250838701855b82811015614b6e57603f19888603018452614b5c8583516149f0565b94509285019290850190600101614b40565b5092979650505050505050565b6000602082526140c060208301846149f0565b6020810160058310614b9c57fe5b91905290565b6020808252600390820152624f4e4960e81b604082015260600190565b6020808252600390820152624e454f60e81b604082015260600190565b602080825260029082015261151160f21b604082015260600190565b600060c082019050825182526020830151602083015260408301516040830152606083015160608301526080830151608083015260a083015160a083015292915050565b600061016082019050614c508284516149e3565b6020830151614c6260208401826149e3565b506040830151614c756040840182614a23565b506060830151614c886060840182614a1c565b506080830151614c9b6080840182614a1c565b5060a083015160a083015260c083015160c083015260e083015160e083015261010080840151818401525061012080840151614cd9828501826149e3565b505061014092830151919092015290565b600060208252825160406020840152614d0660608401826149f0565b602094909401516001600160a01b0316604093909301929092525090919050565b61ffff91909116815260200190565b90815260200190565b600085825284602083015260018060a01b03841660408301526080606083015261331160808301846149f0565b6000808335601e19843603018112614d82578283fd5b8301803591506001600160401b03821115614d9b578283fd5b60200191503681900382131561337857600080fd5b6040518181016001600160401b0381118282101715614dcb57fe5b604052919050565b60006001600160401b03821115614de657fe5b5060209081020190565b60006001600160401b03821115614e0357fe5b50601f01601f191660200190565b60005b83811015614e2c578181015183820152602001614e14565b83811115610a325750506000910152565b6001600160a01b038116811461111757600080fd5b8060020b811461111757600080fd5b63ffffffff8116811461111757600080fd5b60ff8116811461111757600080fdfea2646970667358221220899840cba1d2d6f30c33d1e46544f8e86cb0bdb02aa3b898820c791111e8bf9d64736f6c63430007060033",
  "linkReferences": {},
  "deployedLinkReferences": {}
}